{
  "contractName": "Reserva",
  "abi": [
    {
      "inputs": [],
      "stateMutability": "nonpayable",
      "type": "constructor"
    },
    {
      "anonymous": false,
      "inputs": [
        {
          "indexed": false,
          "internalType": "string",
          "name": "_message",
          "type": "string"
        }
      ],
      "name": "AforoDisponible",
      "type": "event"
    },
    {
      "anonymous": false,
      "inputs": [
        {
          "indexed": false,
          "internalType": "string",
          "name": "_message",
          "type": "string"
        }
      ],
      "name": "Status",
      "type": "event"
    },
    {
      "inputs": [],
      "name": "comprador",
      "outputs": [
        {
          "internalType": "address payable",
          "name": "",
          "type": "address"
        }
      ],
      "stateMutability": "view",
      "type": "function",
      "constant": true
    },
    {
      "inputs": [],
      "name": "contractaddress",
      "outputs": [
        {
          "internalType": "address payable",
          "name": "",
          "type": "address"
        }
      ],
      "stateMutability": "view",
      "type": "function",
      "constant": true
    },
    {
      "inputs": [],
      "name": "description",
      "outputs": [
        {
          "internalType": "string",
          "name": "",
          "type": "string"
        }
      ],
      "stateMutability": "view",
      "type": "function",
      "constant": true
    },
    {
      "inputs": [],
      "name": "entradasdisponibles",
      "outputs": [
        {
          "internalType": "uint8",
          "name": "",
          "type": "uint8"
        }
      ],
      "stateMutability": "view",
      "type": "function",
      "constant": true
    },
    {
      "inputs": [],
      "name": "owner",
      "outputs": [
        {
          "internalType": "address payable",
          "name": "",
          "type": "address"
        }
      ],
      "stateMutability": "view",
      "type": "function",
      "constant": true
    },
    {
      "inputs": [],
      "name": "price",
      "outputs": [
        {
          "internalType": "uint256",
          "name": "",
          "type": "uint256"
        }
      ],
      "stateMutability": "view",
      "type": "function",
      "constant": true
    },
    {
      "inputs": [],
      "name": "totalentradas",
      "outputs": [
        {
          "internalType": "uint8",
          "name": "",
          "type": "uint8"
        }
      ],
      "stateMutability": "view",
      "type": "function",
      "constant": true
    },
    {
      "inputs": [],
      "name": "compra",
      "outputs": [],
      "stateMutability": "payable",
      "type": "function",
      "payable": true
    },
    {
      "inputs": [],
      "name": "cancelar",
      "outputs": [],
      "stateMutability": "nonpayable",
      "type": "function"
    },
    {
      "inputs": [],
      "name": "withdraw",
      "outputs": [],
      "stateMutability": "payable",
      "type": "function",
      "payable": true
    },
    {
      "inputs": [],
      "name": "getentradasdisponibles",
      "outputs": [
        {
          "internalType": "uint8",
          "name": "",
          "type": "uint8"
        }
      ],
      "stateMutability": "view",
      "type": "function",
      "constant": true
    },
    {
      "inputs": [],
      "name": "sacarfondos",
      "outputs": [],
      "stateMutability": "nonpayable",
      "type": "function"
    }
  ],
  "bytecode": "0x6080604052476003553480156200001557600080fd5b506040518060600160405280603081526020016200139f60309139600090805190602001906200004792919062000174565b5064e8d4a510006001819055506064600260006101000a81548160ff021916908360ff160217905550600260009054906101000a900460ff16600260016101000a81548160ff021916908360ff1602179055506000600660146101000a81548160ff02191690831515021790555033600560006101000a81548173ffffffffffffffffffffffffffffffffffffffff021916908373ffffffffffffffffffffffffffffffffffffffff16021790555030600660006101000a81548173ffffffffffffffffffffffffffffffffffffffff021916908373ffffffffffffffffffffffffffffffffffffffff1602179055507f2844c95bf1b4598da931d527f903501abc60fe0199c65da52d5ce818c6c5e961604051620001669062000285565b60405180910390a16200030b565b8280546200018290620002d6565b90600052602060002090601f016020900481019282620001a65760008555620001f2565b82601f10620001c157805160ff1916838001178555620001f2565b82800160010185558215620001f2579182015b82811115620001f1578251825591602001919060010190620001d4565b5b50905062000201919062000205565b5090565b5b808211156200022057600081600090555060010162000206565b5090565b600082825260208201905092915050565b7f436f6e63696572746f20646973706f6e69626c65000000000000000000000000600082015250565b60006200026d60148362000224565b91506200027a8262000235565b602082019050919050565b60006020820190508181036000830152620002a0816200025e565b9050919050565b7f4e487b7100000000000000000000000000000000000000000000000000000000600052602260045260246000fd5b60006002820490506001821680620002ef57607f821691505b602082108103620003055762000304620002a7565b5b50919050565b611084806200031b6000396000f3fe6080604052600436106100a75760003560e01c806372e61c521161006457806372e61c52146101585780638da5cb5b146101835780638ffb1ccf146101ae578063a035b1fe146101c5578063cb196d0f146101f0578063db7fbc861461021b576100a7565b80630f50b6e7146100ac5780632651e778146100d75780632e71a1b4146101025780633ccfd60b1461010c5780634abe8b4f146101165780637284e4161461012d575b600080fd5b3480156100b857600080fd5b506100c1610246565b6040516100ce91906109db565b60405180910390f35b3480156100e357600080fd5b506100ec61026c565b6040516100f99190610a12565b60405180910390f35b61010a61027f565b005b6101146104c1565b005b34801561012257600080fd5b5061012b61062d565b005b34801561013957600080fd5b506101426107e3565b60405161014f9190610ac6565b60405180910390f35b34801561016457600080fd5b5061016d610871565b60405161017a9190610a12565b60405180910390f35b34801561018f57600080fd5b50610198610884565b6040516101a591906109db565b60405180910390f35b3480156101ba57600080fd5b506101c36108aa565b005b3480156101d157600080fd5b506101da610957565b6040516101e79190610b01565b60405180910390f35b3480156101fc57600080fd5b5061020561095d565b6040516102129190610a12565b60405180910390f35b34801561022757600080fd5b50610230610974565b60405161023d91906109db565b60405180910390f35b600460009054906101000a900473ffffffffffffffffffffffffffffffffffffffff1681565b600260019054906101000a900460ff1681565b6000600260019054906101000a900460ff1660ff161180156102a2575060015434145b80156102bb5750600660159054906101000a900460ff16155b156104895733600460006101000a81548173ffffffffffffffffffffffffffffffffffffffff021916908373ffffffffffffffffffffffffffffffffffffffff1602179055506002600181819054906101000a900460ff168092919061032090610b4b565b91906101000a81548160ff021916908360ff160217905550506000600260019054906101000a900460ff1660ff16036103675760011515600660149054906101000a905050505b6000600760003373ffffffffffffffffffffffffffffffffffffffff1673ffffffffffffffffffffffffffffffffffffffff16815260200190815260200160002054111561040957600760003373ffffffffffffffffffffffffffffffffffffffff1673ffffffffffffffffffffffffffffffffffffffff16815260200190815260200160002060008154809291906103ff90610b74565b919050555061044f565b6001600760003373ffffffffffffffffffffffffffffffffffffffff1673ffffffffffffffffffffffffffffffffffffffff168152602001908152602001600020819055505b7f2844c95bf1b4598da931d527f903501abc60fe0199c65da52d5ce818c6c5e96160405161047c90610c08565b60405180910390a16104bf565b7f2844c95bf1b4598da931d527f903501abc60fe0199c65da52d5ce818c6c5e9616040516104b690610cc0565b60405180910390a15b565b600660159054906101000a900460ff16610510576040517f08c379a000000000000000000000000000000000000000000000000000000000815260040161050790610d2c565b60405180910390fd5b6000600760003373ffffffffffffffffffffffffffffffffffffffff1673ffffffffffffffffffffffffffffffffffffffff1681526020019081526020016000205411610592576040517f08c379a000000000000000000000000000000000000000000000000000000000815260040161058990610dbe565b60405180910390fd5b6000600760003373ffffffffffffffffffffffffffffffffffffffff1673ffffffffffffffffffffffffffffffffffffffff168152602001908152602001600020546001546105e19190610dde565b90503373ffffffffffffffffffffffffffffffffffffffff166108fc829081150290604051600060405180830381858888f19350505050158015610629573d6000803e3d6000fd5b5050565b600560009054906101000a900473ffffffffffffffffffffffffffffffffffffffff1673ffffffffffffffffffffffffffffffffffffffff163373ffffffffffffffffffffffffffffffffffffffff16146106bd576040517f08c379a00000000000000000000000000000000000000000000000000000000081526004016106b490610e84565b60405180910390fd5b600660159054906101000a900460ff161561070d576040517f08c379a000000000000000000000000000000000000000000000000000000000815260040161070490610f3c565b60405180910390fd5b600660169054906101000a900460ff161561075d576040517f08c379a000000000000000000000000000000000000000000000000000000000815260040161075490610fce565b60405180910390fd5b6001600660166101000a81548160ff021916908315150217905550600560009054906101000a900473ffffffffffffffffffffffffffffffffffffffff1673ffffffffffffffffffffffffffffffffffffffff166108fc479081150290604051600060405180830381858888f193505050501580156107e0573d6000803e3d6000fd5b50565b600080546107f09061101d565b80601f016020809104026020016040519081016040528092919081815260200182805461081c9061101d565b80156108695780601f1061083e57610100808354040283529160200191610869565b820191906000526020600020905b81548152906001019060200180831161084c57829003601f168201915b505050505081565b600260009054906101000a900460ff1681565b600560009054906101000a900473ffffffffffffffffffffffffffffffffffffffff1681565b600560009054906101000a900473ffffffffffffffffffffffffffffffffffffffff1673ffffffffffffffffffffffffffffffffffffffff163373ffffffffffffffffffffffffffffffffffffffff161461093a576040517f08c379a000000000000000000000000000000000000000000000000000000000815260040161093190610e84565b60405180910390fd5b6001600660156101000a81548160ff021916908315150217905550565b60015481565b6000600260019054906101000a900460ff16905090565b600660009054906101000a900473ffffffffffffffffffffffffffffffffffffffff1681565b600073ffffffffffffffffffffffffffffffffffffffff82169050919050565b60006109c58261099a565b9050919050565b6109d5816109ba565b82525050565b60006020820190506109f060008301846109cc565b92915050565b600060ff82169050919050565b610a0c816109f6565b82525050565b6000602082019050610a276000830184610a03565b92915050565b600081519050919050565b600082825260208201905092915050565b60005b83811015610a67578082015181840152602081019050610a4c565b83811115610a76576000848401525b50505050565b6000601f19601f8301169050919050565b6000610a9882610a2d565b610aa28185610a38565b9350610ab2818560208601610a49565b610abb81610a7c565b840191505092915050565b60006020820190508181036000830152610ae08184610a8d565b905092915050565b6000819050919050565b610afb81610ae8565b82525050565b6000602082019050610b166000830184610af2565b92915050565b7f4e487b7100000000000000000000000000000000000000000000000000000000600052601160045260246000fd5b6000610b56826109f6565b915060008203610b6957610b68610b1c565b5b600182039050919050565b6000610b7f82610ae8565b91507fffffffffffffffffffffffffffffffffffffffffffffffffffffffffffffffff8203610bb157610bb0610b1c565b5b600182019050919050565b7f436f6d707261207265616c697a61646120636f6e20657869746f000000000000600082015250565b6000610bf2601a83610a38565b9150610bfd82610bbc565b602082019050919050565b60006020820190508181036000830152610c2181610be5565b9050919050565b7f5961206e6f2068617920656e7472616461732c206e6f2068617320696e74726f60008201527f64756369646f20656c2070726563696f20616465637561646f2c20736520686160208201527f2063616e63656c61646f206f207961207365206861207265616c697a61646f00604082015250565b6000610caa605f83610a38565b9150610cb582610c28565b606082019050919050565b60006020820190508181036000830152610cd981610c9d565b9050919050565b7f456c20636f6e63696572746f20736967756520656e2070696500000000000000600082015250565b6000610d16601983610a38565b9150610d2182610ce0565b602082019050919050565b60006020820190508181036000830152610d4581610d09565b9050919050565b7f4e6f207469656e657320656e7472616461207061726120656c20636f6e63696560008201527f72746f0000000000000000000000000000000000000000000000000000000000602082015250565b6000610da8602383610a38565b9150610db382610d4c565b604082019050919050565b60006020820190508181036000830152610dd781610d9b565b9050919050565b6000610de982610ae8565b9150610df483610ae8565b9250817fffffffffffffffffffffffffffffffffffffffffffffffffffffffffffffffff0483118215151615610e2d57610e2c610b1c565b5b828202905092915050565b7f4e6f206572657320656c2070726f706965746172696f00000000000000000000600082015250565b6000610e6e601683610a38565b9150610e7982610e38565b602082019050919050565b60006020820190508181036000830152610e9d81610e61565b9050919050565b7f456c20636f6e63696572746f2073652068612063616e63656c61646f2c20736f60008201527f6c6f206c6f7320636f6d707261646f7265732070756564656e207265636c616d60208201527f6172206c6f7320666f6e646f7300000000000000000000000000000000000000604082015250565b6000610f26604d83610a38565b9150610f3182610ea4565b606082019050919050565b60006020820190508181036000830152610f5581610f19565b9050919050565b7f456c20636f6e63696572746f207961207365206861207265616c697a61646f2060008201527f79206c6f7320666f6e646f732073652068616e20726574697261646f00000000602082015250565b6000610fb8603c83610a38565b9150610fc382610f5c565b604082019050919050565b60006020820190508181036000830152610fe781610fab565b9050919050565b7f4e487b7100000000000000000000000000000000000000000000000000000000600052602260045260246000fd5b6000600282049050600182168061103557607f821691505b60208210810361104857611047610fee565b5b5091905056fea2646970667358221220daf9d165ffd15538ab9043dc85581321c6c8019c32e1a3bca9a0b69e7fa7044764736f6c634300080e0033436f6e63696572746f206465206d696c696b6920656e206c612073616c6120536f6c20656c2032352f30332f32303233",
  "immutableReferences": {},
  "source": "// Version de solidity del Smart Contract\r\n// SPDX-License-Identifier: UNLICENSED\r\n\r\npragma solidity ^0.8.14;\r\n\r\n// Informacion del Smart Contract\r\n// Nombre: Reserva\r\n// Logica: Implementa subasta de productos entre varios participantes\r\n\r\n// Declaracion del Smart Contract - Auction\r\ncontract Reserva {\r\n\r\n    // ----------- Variables (datos) -----------\r\n    // Informacin de la reserva\r\n    string public description;\r\n    uint public price;\r\n    uint8 public totalentradas;\r\n    uint8 public entradasdisponibles;\r\n    uint fondostotales = address(this).balance;\r\n\r\n    // Comprador de la reserva\r\n    address payable public comprador;\r\n    address payable public owner;\r\n    address payable public contractaddress;\r\n\r\n    // Estado de la reserva\r\n    bool private completo;\r\n    bool private cancelado;\r\n    bool private terminado;\r\n    \r\n    // ----------- Eventos (pueden ser emitidos por el Smart Contract) -----------\r\n    event AforoDisponible(string _message);\r\n    event Status(string _message);\r\n\r\n    //Mapping\r\n    mapping (address => uint) pendingWithdrawals;\r\n\r\n    // ----------- Constructor -----------\r\n    // Uso: Inicializa el Smart Contract - Reserva\r\n    constructor() {\r\n        \r\n        // Inicializo el valor a las variables (datos)\r\n        description = \"Concierto de miliki en la sala Sol el 25/03/2023\";\r\n        price = 1000 gwei;\r\n        totalentradas = 100;\r\n        entradasdisponibles = totalentradas;\r\n        completo = false;\r\n        owner = payable(msg.sender);\r\n        contractaddress = payable(address(this));\r\n\r\n        \r\n        // Se emite un Evento\r\n        emit Status(\"Concierto disponible\");\r\n    }\r\n    \r\n    // ------------ Funciones que modifican datos (set) ------------\r\n\r\n    // Funcion\r\n    // Nombre: compra\r\n    // Uso:    Deja que el usuario envie fondos al contrato si se cumplen las conciciones\r\n    function compra() public payable {\r\n        if(entradasdisponibles > 0 && msg.value == price && !cancelado){\r\n            comprador = payable(msg.sender);\r\n            entradasdisponibles --;\r\n                if(entradasdisponibles == 0){\r\n                    completo == true;\r\n                }\r\n            if(pendingWithdrawals[msg.sender]>0){\r\n                pendingWithdrawals[msg.sender]++;\r\n            } else{\r\n                pendingWithdrawals[msg.sender] = 1;\r\n            }\r\n            emit Status(\"Compra realizada con exito\");\r\n        } else {\r\n            emit Status(\"Ya no hay entradas, no has introducido el precio adecuado, se ha cancelado o ya se ha realizado\");\r\n        }\r\n    }\r\n\r\n    // Funcion\r\n    // Nombre: cancelar \r\n    // Uso:    se cancela el concierto y se pone en true para que los usuarios puedan sacar los fondos introducidos,\r\n    //         solo puede cancelar el concierto el creador del contrato\r\n    function cancelar() public {\r\n        require(msg.sender == owner, \"No eres el propietario\");\r\n        cancelado = true;\r\n    }\r\n\r\n    // Funcion\r\n    // Nombre: withdraw \r\n    // Uso:    La funcin ejecuta la transferencia del contrato a la direccin del solicitante\r\n    //         una vez cancelado el contrato los compradores que han pagado pueden retirar sus fondos\r\n    function withdraw() public payable {\r\n        require(cancelado, \"El concierto sigue en pie\");\r\n        require(pendingWithdrawals[msg.sender]>0, \"No tienes entrada para el concierto\");\r\n        uint totaldevolver = price * pendingWithdrawals[msg.sender];\r\n        payable(msg.sender).transfer(totaldevolver);\r\n    }\r\n\r\n    // Funcion\r\n    // Nombre: Entradas disponibles\r\n    // Logica: Consulta las entradas disponibles del concierto\r\n    function getentradasdisponibles() public view returns (uint8){\r\n        return (entradasdisponibles);\r\n    }\r\n\r\n\r\n    // Funcion\r\n    // Nombre: sacarfondos \r\n    // Uso:    Enviar los fondos del contrato al creador\r\n    function sacarfondos() public {\r\n        require(msg.sender == owner, \"No eres el propietario\");\r\n        require(!cancelado, \"El concierto se ha cancelado, solo los compradores pueden reclamar los fondos\");\r\n        require(!terminado, \"El concierto ya se ha realizado y los fondos se han retirado\");\r\n        terminado = true;\r\n        owner.transfer(address(this).balance);\r\n\r\n    }\r\n\r\n /*   \r\n    // ------------ Funciones que consultan datos (get) ------------\r\n   \r\n   \r\n    function fondoscontratos() public view returns(uint){\r\n        return (address(this).balance);\r\n    }\r\n    // Funcion\r\n    // Nombre: Entradas disponibles\r\n    // Logica: Consulta las entradas disponibles del concierto\r\n    function getentradasdisponibles() public view returns (uint8){\r\n        return (entradasdisponibles);\r\n    }\r\n    \r\n    // Funcion\r\n    // Nombre: getPrice\r\n    // Logica: Consulta el precio de la maxima puja\r\n    function getPrice() public view returns (uint){\r\n        return (price);\r\n    }\r\n*/\r\n}\r\n\r\n",
  "sourcePath": "C:\\Users\\danic\\Proyectos_Master\\Reserva_DAPP\\react-simple-truffle-box\\contracts\\Reserva.sol",
  "compiler": {
    "name": "solc",
    "version": "0.8.14+commit.80d49f37.Emscripten.clang"
  },
  "schemaVersion": "3.4.10",
  "updatedAt": "2022-11-18T20:09:26.214Z",
  "networkType": "ethereum",
  "devdoc": {
    "kind": "dev",
    "methods": {},
    "version": 1
  },
  "userdoc": {
    "kind": "user",
    "methods": {},
    "version": 1
  }
}